:020000001628C0
:0E000600831203132C088A002B0882000800C6
:1000140003208A110A128000840AAB0A0319AC0A6D
:08002400F003031D0A28080087
:10002C003F3083120313A0000630A1005B30A20006
:10003C004F30A3006630A4006D30A5007D30A600C3
:10004C000730A7007F30A8006F30A900AA018316E3
:10005C008601051483122008860007309F000518BE
:10006C005028AA0A2A08093C03183D28AA012A0884
:10007C00203E8400000886000330FB008A30FC0020
:10008C005530FD00FD0B4828FC0B4828FB0B48287D
:08009C00000000003528512886
:02400E00582137
:00000001FF
